:020000040800F2
:10000000C0080020050A0008610A0008610A00080B
:10001000610A0008610A0008610A00080000000087
:10002000000000000000000000000000610A00085D
:10003000610A000800000000610A0008610A000867
:10004000610A0008610A0008610A0008610A0008E4
:10005000610A0008610A0008610A0008610A0008D4
:10006000610A0008610A0008610A0008610A0008C4
:10007000610A0008610A0008610A0008610A0008B4
:10008000610A0008610A0008610A0008610A0008A4
:10009000610A0008610A0008610A0008610A000894
:1000A000610A0008610A0008610A0008610A000884
:1000B000610A0008610A00089D220008610A000820
:1000C000610A0008610A0008610A0008610A000864
:1000D000610A0008610A0008610A0008610A000854
:1000E000610A0008610A0008610A000800000000B7
:1000F0000000000000000000000000000000000000
:1001000000000000000000005FF808F180B588B032
:1001100000AF0346B9607A60FB730023FB76786812
:100120004FF0000104F0CAFE0346002B08D0BB6864
:100130005A1CBA602D221A707B6883F000437B60E2
:10014000786804F009FF0346FB61FB7B002B2CD091
:100150001EE0F87EF969334BA3FB0123DA0813464E
:100160009B0013445B00CA1AD3B23033DAB207F1F2
:100170002003034403F8102CFB692A4AA2FB032343
:10018000DB08FB61FB7E0133FB76FB7B013BFB73F2
:10019000FB7B002BDDD1FB7E07F1200213442E22D6
:1001A00003F8102CFB7E0133FB76F87EF9691D4BBA
:1001B000A3FB0123DA0813469B0013445B00CA1A11
:1001C000D3B23033DAB207F12003034403F8102C22
:1001D000FB69144AA2FB0323DB08FB61FB7E0133AE
:1001E000FB76FB69002BE0D1FB7E013BFB76BB6815
:1001F0005A1CBA60FA7E07F120010A4412F8102C4A
:100200001A70FB7E002BEFD1BB685A1CBA6000222B
:100210001A70BB685A1CBA6000221A702037BD469B
:1002200080BD00BFCDCCCCCC80B483B000AF7860B3
:100230000B46FB7012E07B6801337B60FB78012B7F
:1002400006D17B681B782E2B02D17B6820221A7086
:10025000FB78002B02D17B6800221A70FB785A1EB3
:10026000FA70002BE7D10C37BD465DF8047B704770
:1002700080B483B000AF0346FB710E4A0D4B1B6880
:1002800023F004031360FB79DB08DAB20A4B1A701F
:10029000094B1B789BB21A465201D21A92001344A2
:1002A000DB009AB2054B1A800C37BD465DF8047B23
:1002B000704700BF10E000E06404002066040020E6
:1002C00080B582B000AF7860064A074B1B8819469C
:1002D0007B6803FB01F3536000F030F80837BD463C
:1002E00080BD00BF10E000E06604002080B582B051
:1002F00000AF7860064A074B1B7819467B6803FB02
:1003000001F3536000F01AF80837BD4680BD00BF06
:1003100010E000E06404002080B582B000AF786097
:1003200006E04FF47A70FFF7CBFF7B68013B7B6000
:100330007B68002BF5D10837BD4680BD80B483B003
:1003400000AF0F4B00229A600D4B01221A600C4B3C
:100350001B687B607B6803F00103002B04D07B6883
:1003600003F48033002BF2D0054B00221A60044BBB
:1003700000229A600C37BD465DF8047B704700BFD1
:1003800010E000E080B485B000AF786039600023F1
:10039000FB817B681B88FB817B682E4A934213D0CC
:1003A0007B682D4A93420FD07B68B3F1804F0BD00E
:1003B0007B682A4A934207D07B68294A934203D03C
:1003C0007B68284A934208D1FB8923F07003FB81A4
:1003D0003B685A88FB891343FB817B68224A93421E
:1003E0000CD07B68214A934208D0FB8923F44073E8
:1003F000FB813B68DA88FB891343FB817B68FA89C0
:100400001A803B689A887B689A853B681A887B6863
:100410001A857B680F4A93420FD07B680E4A93423D
:100420000BD07B68124A934207D07B68114A9342F3
:1004300003D07B68104A934204D13B681B7A9AB27E
:100440007B681A867B6801229A821437BD465DF864
:10045000047B7047002C0140003401400004004040
:1004600000080040000C0040001000400014004054
:1004700000400140004401400048014080B485B084
:1004800000AF786039600023BB8100237B810023AB
:10049000FB817B681B8C9BB223F480539AB27B68F0
:1004A0001A847B681B8C7B817B689B88FB817B68C3
:1004B0009B8BBB81BB8923F4E043BB81BB8923F4C5
:1004C0004073BB813B681B881B029AB2BB891343F4
:1004D000BB817B8923F400537B813B681B891B0311
:1004E0009AB27B8913437B813B685B881B039AB27A
:1004F0007B8913437B817B68124A934203D07B68DC
:10050000114A93420AD1FB8923F48043FB813B6863
:100510009B899B019AB2FB891343FB817B68FA8913
:100520009A807B68BA899A833B68DA887B68A3F8EB
:1005300040207B687A891A841437BD465DF8047BB5
:10054000704700BF002C01400034014080B483B0EC
:1005500000AF78600B46FB70FB78002B08D07B68FF
:100560001B889BB243F001039AB27B681A8007E0B4
:100570007B681B889BB223F001039AB27B681A80C8
:100580000C37BD465DF8047B704700BF80B485B072
:1005900000AF78600B467B800023FB817B689B8BE0
:1005A000FB81FB8923F40063FB817B881B029AB2E9
:1005B000FB891343FB817B68FA899A831437BD4614
:1005C0005DF8047B704700BF80B485B000AF7860F1
:1005D0000B467B800023FB730023BB8100237B81C0
:1005E0007B681B8A9AB27B881340BB817B689B899E
:1005F0009AB27B8813407B81BB89002B05D07B8915
:10060000002B02D00123FB7301E00023FB73FB7B73
:1006100018461437BD465DF8047B704780B483B03C
:1006200000AF78600B467B807B88DB439AB27B68A7
:100630001A820C37BD465DF8047B704780B584B0E4
:1006400000AFF860B9601346FB7102F0E7FA35209D
:1006500002F064FBF86802F001FB03461A460E4BF9
:100660001A700EE0BB689A1CBA601B88F8681946BD
:1006700002F026FB03461A46074B1A70FB6802334A
:10068000FB60FB795A1EFA71002BEBD102F0D8FA0D
:100690001037BD4680BD00BF3000002080B485B05B
:1006A00000AFF860B9601346FB7108E0BB689A1CA4
:1006B000BA60FA6812881A80FB680233FB60FB7923
:1006C0005A1EFA71002BF1D11437BD465DF8047B38
:1006D000704700BF80B483B000AF0346FB71084988
:1006E00097F907305B09FA7902F01F02012000FA3E
:1006F00002F241F823200C37BD465DF8047B7047B9
:1007000000E100E080B500AF00F018F800F03EF81E
:10071000074B1B78074880211A4600F0BBFC064BAC
:100720001B78044880211A4600F0B4FC80BD00BF4D
:100730008A040020000C01408C04002080B582B0A7
:1007400000AF0120012102F0B1F80820012102F0E0
:10075000ADF84FF40073BB801823FB710323BB710A
:100760003B1D0948194600F09FFBC0233B80102326
:10077000FB700323BB703B460348194600F094FB13
:100780000837BD4680BD00BF000C014080B588B071
:1007900000AF0120012102F089F80420012102F0BC
:1007A000A3F84823BB821C4B1B883B8300237B831D
:1007B0001023FB8207F1140318481946FFF7E2FDE6
:1007C000174B1B887B816023BB800123FB80154B6B
:1007D0001B78002B02D00023BB8101E00223BB81E8
:1007E0003B1D0E481946FFF749FE0C480821FFF74C
:1007F000CDFE0A4A094B9B899BB243F001039BB291
:10080000938106480121FFF709FF1E20FFF762FFD1
:100810002037BD4680BD00BF8E0400200008004088
:10082000880400208B04002080B500AF094B1B78A2
:10083000094840211A4600F02DFC084B1B78064859
:1008400080211A4600F026FC05480121FFF77EFEB4
:1008500080BD00BF8A040020000C01408C040020F1
:100860000008004080B500AF06480021FFF76EFE8B
:10087000054B1B78013BDBB2044840211A4600F0CF
:1008800009FC80BD000800408A040020000C0140E3
:1008900080B500AF154A154B1B6843F00103136088
:1008A0001249124B5A68124B13404B600F4A0F4BC0
:1008B0001B6823F0847323F4803313600B4A0B4BC3
:1008C0001B6823F480231360084A084B5B6823F4F9
:1008D000FE035360054B4FF41F029A6000F00CF8C2
:1008E000044B4FF000629A6080BD00BF00100240D0
:1008F0000000FFF800ED00E080B500AF00F002F866
:1009000080BD00BF80B483B000AF00237B600023B4
:100910003B603A4A394B1B6843F480331360374BD2
:100920001B6803F400333B607B6801337B603B68EA
:10093000002B03D17B68B3F5A06FF0D12F4B1B6860
:1009400003F40033002B02D001233B6001E00023BD
:100950003B603B68012B4BD1294A294B1B6843F074
:1009600010031360264A264B1B6823F00303136011
:10097000234A234B1B6843F0020313601F4A1F4B9B
:100980005B6853601D4A1D4B5B6853601B4A1B4BE1
:100990005B6843F480635360184A184B5B6823F428
:1009A0007C135360154A154B5B6843F4E81353609E
:1009B000124A124B1B6843F08073136000BF0F4B49
:1009C0001B6803F00073002BF9D00C4A0B4B5B68DB
:1009D00023F003035360094A084B5B6843F00203AA
:1009E000536000BF054B5B6803F00C03082BF9D183
:1009F0000C37BD465DF8047B704700BF0010024015
:100A00000020024080B582B000AF104B7B60104BDD
:100A10003B6007E03B681A1D3A607A68111D7960F7
:100A200012681A603B680B4A9342F3D30A480B4999
:100A30004FF000028842B8BF40F8042BFADBFFF702
:100A400027FF00F03FFB0837BD4680BD2C51000852
:100A5000000000206404002064040020C004002082
:100A600080B400AFFEE700BF80B582B000AF0820C1
:100A7000012101F01BFF4FF23803BB800323BB7140
:100A80001023FB713B1D0948194600F00DFA084A76
:100A9000074B9B6943F001039361064A054B5B6872
:100AA00043F0007353600837BD4680BD000C014021
:100AB000001002400000014080B582B000AF034644
:100AC000FB710B46BB7113467B7100F0ABF8BB7931
:100AD0003F4820211A4600F0DDFA7B793C4810217E
:100AE0001A4600F0D7FAFB79DB09DBB238484FF43D
:100AF00000411A4600F0CEFAFB799B09DBB203F005
:100B00000103DBB232484FF480411A4600F0C2FACA
:100B1000FB795B09DBB203F00103DBB22C484FF435
:100B200000511A4600F0B6FAFB791B09DBB203F05C
:100B30000103DBB226484FF480511A4600F0AAFAAE
:100B40002348082100F08AFA0520FFF7CFFB204850
:100B5000082100F091FAFB79DB08DBB203F0010316
:100B6000DBB21B484FF400411A4600F093FAFB79C0
:100B70009B08DBB203F00103DBB215484FF4804160
:100B80001A4600F087FAFB795B08DBB203F0010339
:100B9000DBB20F484FF400511A4600F07BFAFB79A4
:100BA00003F00103DBB20A484FF480511A4600F00B
:100BB00071FA0748082100F051FA0520FFF796FB6B
:100BC0000348082100F058FA0837BD4680BD00BF31
:100BD000000C014080B582B000AF4FF47043BB8081
:100BE0000323BB712823FB713B1D0348194600F00A
:100BF0005BF90837BD4680BD000C014080B582B06E
:100C000000AF4FF47043BB800323BB711023FB7113
:100C10003B1D0348194600F047F90837BD4680BD23
:100C2000000C014080B582B000AFFFF7D3FF42F265
:100C30001073FB801548102100F010FA0A20FFF70E
:100C400055FB1248202100F017FA1048082100F047
:100C500005FA0520FFF74AFB0CE0FB88013BFB800F
:100C60000A484FF4004100F0DFF90346002B01D1A0
:100C70000023FB80FB88002BEFD10448082100F003
:100C8000FBF9FFF7BBFF0837BD4680BD000C0140F4
:100C900080B500AFFFF7E8FE39484FF4805100F00F
:100CA000DDF937484FF4005100F0D8F934484FF4DB
:100CB000804100F0E1F932484FF4004100F0DCF9E6
:100CC0002F48082100F0CAF90520FFF70FFB2C4838
:100CD000082100F0D1F90A20FFF7F2FA284808218C
:100CE00000F0BCF90520FFF701FB2548082100F0C2
:100CF000C3F9C820FFF7FAFA2148082100F0AEF93D
:100D00000520FFF7F3FA1E48082100F0B5F9C820C6
:100D1000FFF7ECFA1A484FF4805100F0ADF918488B
:100D2000082100F09BF90520FFF7E0FA144808219C
:100D300000F0A2F9C820FFF7D9FA282000210022EC
:100D4000FFF7BAFE6420FFF7D1FA06200021002247
:100D5000FFF7B2FEC820FFF7C9FA0C2000210022DD
:100D6000FFF7AAFEC820FFF7C1FA012000210022E8
:100D7000FFF7A2FE022000210022FFF79DFE80BDAA
:100D8000000C014080B582B000AF03460A46FB71FB
:100D90001346BB71BB79032B16D801A252F823F07E
:100DA000C90D0008B10D0008B90D0008C10D0008FB
:100DB000FB794033FB7107E0FB791433FB7103E0EF
:100DC000FB795433FB7100BFFB79803BFB71FB79EE
:100DD000184600210022FFF76FFE0837BD4680BD90
:100DE00080B582B000AF786019E07B681B78BF2BBC
:100DF00009D87B685A1C7A601B78184601210022AA
:100E0000FFF75AFE0BE07B685A1C7A601B78C03BE8
:100E1000064AD35C184601210022FFF74DFE7B688D
:100E20001B78002BE1D10837BD4680BD00000020B3
:100E300080B582B000AF78600B46FB701CE0FB7899
:100E4000013BFB707B681B78BF2B09D87B685A1C61
:100E50007A601B78184601210022FFF72DFE0BE077
:100E60007B685A1C7A601B78C03B0E4AD35C1846DC
:100E700001210022FFF720FE7B681B78002B02D0A7
:100E8000FB78002BDBD107E0202001210022FFF7B7
:100E900013FEFB78013BFB70FB78002BF4D1083785
:100EA000BD4680BD0000002080B489B000AF7860EE
:100EB00039600023FB6100233B610023BB610023F9
:100EC000FB6000237B610023BB603B68DB7803F0A1
:100ED0000F03FB613B68DB7803F01003002B05D0A8
:100EE0003B689B781A46FB691343FB613B681B8890
:100EF000DBB2002B44D07B681B687B610023BB61A5
:100F000038E0BB69012202FA03F3FB603B681B88EF
:100F10001A46FB6813403B613A69FB689A4226D146
:100F2000BB699B00FB60FB680F2202FA03F3BB6006
:100F3000BB68DB437A6913407B61FB68FA6902FA9C
:100F400003F37A6913437B613B68DB78282B05D177
:100F5000BB6901229A407B685A6108E03B68DB78F4
:100F6000482B04D1BB6901229A407B681A61BB6996
:100F70000133BB61BB69072BC3D97B687A691A60EF
:100F80003B681B88FF2B4AD97B685B687B61002329
:100F9000BB613EE0BB6908331A4601239340FB6006
:100FA0003B681B881A46FB6813403B613A69FB6843
:100FB0009A422BD1BB699B00FB60FB680F2202FAAF
:100FC00003F3BB60BB68DB437A6913407B61FB685A
:100FD000FA6902FA03F37A6913437B613B68DB78B1
:100FE000282B07D1BB6908331A46012303FA02F202
:100FF0007B685A613B68DB78482B07D1BB690833B3
:101000001A46012303FA02F27B681A61BB690133B5
:10101000BB61BB69072BBDD97B687A695A602437ED
:10102000BD465DF8047B704780B485B000AF786042
:101030000B467B800023FB737B689A687B88134098
:10104000002B02D00123FB7301E00023FB73FB7B29
:1010500018461437BD465DF8047B704780B483B0F2
:1010600000AF78600B467B807A887B681A610C370A
:10107000BD465DF8047B704780B483B000AF7860F4
:101080000B467B807A887B685A610C37BD465DF8D9
:10109000047B704780B483B000AF78600B467B80E0
:1010A00013467B707B78002B03D07A887B681A61AB
:1010B00002E07A887B685A610C37BD465DF8047B94
:1010C000704700BFB0B500AFA748A8491022FFF78E
:1010D000E5FAFFF717FB4820FFF7CAF86420FFF78F
:1010E000EFF801F01FFCFFF7D3FD00200021FFF710
:1010F00049FE03200021FFF745FE9D48FFF770FEE3
:1011000003200121FFF73EFE9A48FFF769FE022007
:10111000FFF702F9012000210022FFF7CDFC052096
:101120000021FFF72FFE9448FFF75AFE0220FFF739
:10113000F3F8012000210022FFF7BEFC012000216E
:10114000FFF720FE8D48FFF74BFE05200121FFF73A
:1011500019FE8B48FFF744FE0320FFF7DDF8894BAB
:101160001B78002B40F05C817F4880491022FFF7FC
:1011700095FA01F055FB012000210022FFF79CFCAD
:1011800049E101F0D1F901F00FFC7F4B1B78022BF4
:1011900004D07D4B1B78032B40F0AF8001F040FB67
:1011A0007A4B4FF6FF721A80794B1B68002B14D0D4
:1011B000774B1B68184603F08FFC0246754B1B6883
:1011C0001046194603F0DCFC03461846724903F04A
:1011D0008BFD03461A46714B1A60714B1B68002B3E
:1011E0000FD06C4B1C686E4B1B68184603F074FCE8
:1011F00003462046194603F077FD03461A46674B1F
:101200001A6001F063FA674B1B68002B64D0664BD1
:10121000664A1A60664B00221A601FE0624B1C6827
:10122000614B1D68634B1B885A1C91B2614A118047
:10123000184603F051FC03462846194603F054FDB6
:1012400003462046194603F091FB03461A46564BC7
:101250001A60574B1B680133554A1360564B1B8865
:10126000184603F039FC05464F4B1C68514B1B8850
:10127000184603F031FC03462046194603F034FDBE
:1012800003462846194603F073FB03461A46464BAD
:101290001B681046194603F011FE0346002BBDD112
:1012A000324B1A89434B1A80414B1B685A003D4B05
:1012B0001B689A4208DD3B4B1B68DA0F13445B1036
:1012C0001A463E4B1A600AE0364B1A68384B1B68C8
:1012D000D31A3A4A136002E0394B01221A70394B93
:1012E00001221A70384B394A1288A3F84020364B35
:1012F000264A12889A85FFF797FA70E001F054FBAE
:10130000214B1B78012B10D11F4B00221A702E4845
:101310000021FFF71BF9234B00221A60274B002204
:101320001A60284B00221A705DE0174B1B78032BC4
:101330000BD1274B1B781A460C4B5B7B013B9A4227
:1013400003D11F4B01221A7047E00F4B1B78022B71
:1013500040D1064B5A7B1E4B1B789A423AD1184B10
:1013600001221A7039E000BF00FC00089804002038
:10137000A44F0008B04F0008BC4F0008C44F00083D
:10138000D44F000876040020B60400208E0400200C
:101390007C040020B8040020000061459004002077
:1013A0007804002068040020A804002000FF7F4784
:1013B0006C040020BC040020BE0400207004002047
:1013C00074040020750400200008004088040020F8
:1013D0008C040020864B00221A7001F0A5F8854B82
:1013E0001B78002B8AD1844B1B78042B0BD1834BA9
:1013F00064221A70012000210022FFF75DFB4FF4E8
:10140000FA70FEF75DFF7C4B1B78012B03D17C4B00
:101410004FF000021A60794B1B78002B3FF4B1AEFD
:10142000E0E0FFF71FFA022000210022FFF744FB53
:101430007448FFF7D5FC00200121FFF7A3FC724898
:10144000FFF7CEFC0F2001F0F5FA6B4B1B78042B55
:1014500005D16E4B1B780133DAB26C4B1A706B4BB3
:101460001B78042B02D9694B00221A70624B1B783F
:10147000022B2ED1604B00221A70644B1B78184649
:1014800002F0C8FE02460B464FF00000604901F032
:10149000A1FC04460D465F4B1B68184602F0CAFECD
:1014A00002460B461046194622462B4602F076FDB0
:1014B00002460B461046194603F0BCF90246554B4E
:1014C0001A60544B1B68544A934202DD514B002270
:1014D0001A60494B1B78032B2DD1474B00221A7001
:1014E0004A4B1B78184602F095FE02460B464FF019
:1014F0000000474901F06EFC04460D46454B1B6851
:10150000184602F097FE02460B4610461946224640
:101510002B4602F041FD02460B461046194603F0E9
:1015200089F902463B4B1A603A4B1B68002B02DAE2
:10153000384B00221A60354B1B78184602F06AFEC1
:1015400002460B464FF00000314901F043FC0246D1
:101550000B461046194603F0B5F9034600202F4903
:101560001A46FEF7D3FD02200121FFF70BFC2B48A2
:101570000521FFF75DFC274B1B68184603F0ACFA0A
:101580000346002025491A46FEF7C0FD0A20012126
:10159000FFF7F8FB21480521FFF74AFC1D4B1B68AC
:1015A000002B02D01E4B00221A601E4B4FF000028F
:1015B0001A60C820FEF784FE0F4B1B78012B11D157
:1015C0000E4B1B780133DAB20C4B1A70012000214C
:1015D0000022FFF771FA4FF4FA70FEF771FE0B4B21
:1015E00000221A70054B1B78642B3FF41AAFFFE002
:1015F0007404002075040020B60400207604002046
:1016000080040020DC4F0008EC4F0008B7040020E5
:1016100000002440780400209F860100AC040020D4
:101620007C04002090040020022000210022FFF70B
:1016300043FA9348FFF7D4FB00200121FFF7A2FBF8
:101640009048FFF7CDFB0F2001F0F4F98E4B1B788B
:10165000042B05D18D4B1B780133DAB28B4B1A70FA
:101660008A4B1B78042B02D9884B00221A70864BB8
:101670001B78022B2FD1844B00221A70834B1B78CE
:10168000184602F0C7FD02460B464FF000008049A5
:1016900001F0A0FB04460D467E4B1B68184602F085
:1016A000C9FD02460B461046194622462B4602F05B
:1016B00075FC02460B461046194603F0BBF802467D
:1016C000744B1A60734B1B6848F6A042934202DDCC
:1016D000704B00221A606C4B1B78032B2DD16A4B88
:1016E00000221A70694B1B78184602F093FD0246DF
:1016F0000B464FF00000664901F06CFB04460D46B6
:10170000644B1B68184602F095FD02460B461046D6
:10171000194622462B4602F03FFC02460B46104675
:10172000194603F087F802465A4B1A60594B1B685A
:10173000002B02DA574B00221A60544B1B781846D4
:1017400002F068FD02460B464FF00000504901F0E0
:1017500041FB02460B461046194603F0B3F8034618
:1017600000204D491A46FEF7D1FC02200121FFF767
:1017700009FB49480521FFF75BFB464B1B681846F0
:1017800003F0AAF90346012043491A46FEF7BEFCBE
:1017900041480521FEF748FD0A200121FFF7F2FA32
:1017A0003D480521FFF744FB3A4B1B68002B02D054
:1017B0003A4B00221A60C820FEF782FD324B1B789C
:1017C000012B15D1364B1B780133DAB2344B1A702A
:1017D000012000210022FFF76FF94FF4FA70FEF7A5
:1017E0006FFD2A4B00221A702E4B4FF000021A6038
:1017F0002B4B1B78652B3FF417AF3BE002200021F9
:101800000022FFF759F92848FFF7EAFA00200121E2
:10181000FFF7B8FA2548FFF7E3FA0C200121FFF79C
:10182000B1FA2348FFF7DCFA0F2001F003F9164B59
:101830001B78022B0ED11A4B01221A7001200021B5
:101840000022FFF739F94FF4FA70FEF739FD0F4B1C
:1018500000221A700C4B1B78032B0BD1104B00226B
:101860001A70012000210022FFF726F94FF4FA70C8
:10187000FEF726FD0A4B1B78662BBFD0EEE000BFBB
:10188000F04F0008EC4F0008B6040020B704002019
:10189000000024407C040020AC04002078040020D8
:1018A0007604002080040020005000081850000832
:1018B0001C500008022000210022FFF7FDF8B44868
:1018C000FFF78EFA00200121FFF75CFAB148FFF71D
:1018D00087FA0F2001F0AEF8AF4B1B78042B05D12F
:1018E000AE4B1B780133DAB2AC4B1A70AB4B1B78A2
:1018F000042B02D9A94B00221A70A74B1B78022B8C
:101900002ED1A54B00221A70A44B1B78184602F06A
:1019100081FC02460B464FF00000A14901F05AFA43
:1019200004460D469F4B5B68184602F083FC024656
:101930000B461046194622462B4602F02FFB024664
:101940000B461046194602F075FF0246954B5A6049
:10195000944B5B68944A934202DD924B00225A609A
:101960008D4B1B78032B2DD18B4B00221A708B4B88
:101970001B78184602F04EFC02460B464FF0000062
:10198000874901F027FA04460D46864B5B681846E6
:1019900002F050FC02460B461046194622462B46E2
:1019A00002F0FAFA02460B461046194602F042FFD0
:1019B00002467C4B5A607B4B5B68002B02DA794B0A
:1019C00000225A60754B1B78184602F023FC024631
:1019D0000B464FF00000724901F0FCF902460B463D
:1019E0001046194602F06EFF034600206F491A4662
:1019F000FEF78CFB02200121FFF7C4F96B4805219B
:101A0000FFF716FA674B5B68184603F065F8034664
:101A1000002066491A46FEF779FB0A200121FFF7EC
:101A2000B1F962480521FFF703FAC820FEF748FC28
:101A3000594B1B78012B11D15D4B1B780133DAB266
:101A40005B4B1A70012000210022FFF735F84FF49C
:101A5000FA70FEF735FC514B00221A70544B1B787C
:101A6000012B3FF427AF44E0022000210022FFF7C2
:101A700023F85048FFF7B4F900200121FFF782F95D
:101A80004D48FFF7ADF90F2000F0D4FF424B1B7813
:101A9000022B02D1434B01225A733F4B1B78032B7D
:101AA00002D1404B00225A733E4B5B7B184603F039
:101AB0000FF8034600203D491A46FEF727FB3B4836
:101AC0000521FFF7B5F9C820FEF7FAFB324B1B786A
:101AD000012B0ED1364B1B780133DAB2344B1A701E
:101AE000012000210022FEF7E7FF4FF4FA70FEF715
:101AF000E7FB2F4B1B78022BB6D044E002200021DD
:101B00000022FEF7D9FF2D48FFF76AF900200121D6
:101B1000FFF738F92A48FFF763F90F2000F08AFF32
:101B20001D4B1B78022B02D11E4B01229A731A4BBC
:101B30001B78032B02D11B4B00229A73194B9B7B02
:101B4000184602F0C5FF0346002018491A46FEF762
:101B5000DDFA16480521FFF76BF9C820FEF7B0FB48
:101B60000D4B1B78012B0ED1114B1B780133DAB2D0
:101B70000F4B1A70012000210022FEF79DFF4FF449
:101B8000FA70FEF79DFB0A4B1B78032BB6D060E082
:101B900020500008EC4F0008B6040020B7040020D5
:101BA00000002440980400209F860100AC0400201F
:101BB0007604002030500008445000084C500008C3
:101BC0005C500008022000210022FEF775FFA948A2
:101BD000FFF706F900200121FFF7D4F8A648FFF728
:101BE000FFF80F2000F026FFA44B1B78022B02D138
:101BF000A34B01221A73A14B1B78032B02D1A04BDC
:101C000000221A739E4B1B7B184602F061FF0346AD
:101C100000209C491A46FEF779FA9A480521FFF7F9
:101C200007F9FEF7B3FDC820FEF74AFB934B1B787C
:101C3000012B0ED1944B1B780133DAB2924B1A7000
:101C4000012000210022FEF737FF4FF4FA70FEF763
:101C500037FB8D4B1B78042BB4D08B4B1B78052B9B
:101C60000BD1874B5B891A46884B93FBF2F31846DE
:101C700002F032FF0246864B1A60E6E002200021A5
:101C80000022FEF719FF8348FFF7AAF80020012180
:101C9000FFF778F88048FFF7A3F80F2000F0CAFE9E
:101CA000764B1B78042B05D17C4B1B780133DAB2C1
:101CB0007A4B1A70794B1B78042B02D9774B002290
:101CC0001A706E4B1B78022B33D16C4B00221A70AA
:101CD000724B1B78184602F09DFA02460B464FF0F5
:101CE00000006F4901F076F804460D46684B1B680A
:101CF000184602F0B1FA02460B4610461946224633
:101D00002B4602F04BF902460B461046194602F0EC
:101D1000D9FD02465E4B1A605D4B1B68184661494F
:101D200003F0EAF80346002B03D0594B4FF00002B2
:101D30001A60524B1B78032B34D1504B00221A707F
:101D4000564B1B78184602F065FA02460B464FF0D8
:101D50000000534901F03EF804460D464C4B1B6809
:101D6000184602F079FA02460B46104619462246FA
:101D70002B4602F011F902460B461046194602F0B6
:101D8000A1FD0246424B1A60414B1B6818464FF0BA
:101D9000000103F093F80346002B03D03C4B4FF0B7
:101DA00000021A603D4B1B78184602F033FA0246D7
:101DB0000B464FF000003A4901F00CF802460B4682
:101DC0001046194602F07EFD034600202D491A46B2
:101DD000FEF79CF902200121FEF7D4FF29480521D6
:101DE000FFF726F82A4B1B68002026491A46FEF703
:101DF0008DF90A200121FEF7C5FF22480521FFF7D2
:101E000017F8234B1B682848194602F06DFF03465C
:101E1000184603F0A1F803469AB2194B5A81174BA2
:101E20001B78012B11D1184B1B780133DAB2164BFA
:101E30001A70012000210022FEF73EFE4FF4FA70D6
:101E4000FEF73EFA154B00221A700F4B1B78052B3C
:101E50003FF414AF0C4B1B78062B09D1084B1B89A0
:101E6000C3F1FF03184602F037FE0246084B1A6022
:101E70000AE100BF6450000874500008B604002056
:101E800098040020AC0400207604002040420F009B
:101E9000A80400207C500008EC4F0008B704002084
:101EA00000002440804FC3470024744902200021D1
:101EB0000022FEF701FE7748FEF792FF0020012185
:101EC000FEF760FF7448FEF78BFF0F2000F0B2FDB5
:101ED000724B1B78042B05D1714B1B780133DAB29E
:101EE0006F4B1A706E4B1B78042B02D96C4B00227F
:101EF0001A706A4B1B78022B33D1684B00221A7080
:101F0000674B1B78184602F085F902460B464FF0E6
:101F10000000644900F05EFF04460D46624B1B68FA
:101F2000184602F099F902460B4610461946224619
:101F30002B4602F033F802460B461046194602F0D3
:101F4000C1FC0246584B1A60574B1B68184657494C
:101F500002F0D2FF0346002B03D0534B4FF07E52CA
:101F60001A604E4B1B78032B34D14C4B00221A7055
:101F70004B4B1B78184602F04DF902460B464FF0CA
:101F80000000484900F026FF04460D46464B1B68FA
:101F9000184602F061F902460B46104619462246E1
:101FA0002B4601F0F9FF02460B461046194602F097
:101FB00089FC02463C4B1A603B4B1B6818464FF0AD
:101FC000000102F07BFF0346002B03D0364B4FF09D
:101FD0007E521A60324B1B78184602F01BF90246FB
:101FE0000B464FF000002F4900F0F4FE02460B466E
:101FF0001046194602F066FC034600202C491A469A
:10200000FEF784F802200121FEF7BCFE28480521D6
:10201000FEF70EFF244B1B682648194602F0A6FC6B
:102020000346184602F098FF03469AB2224B1A81E3
:102030001D4B1B6800201E491A46FEF767F80A2050
:102040000121FEF79FFE1A480521FEF7F1FEC82088
:10205000FEF736F9114B1B78012B15D1174B1B7866
:102060000133DAB2154B1A70012000210022FEF76D
:1020700023FD4FF4FA70FEF723F9094B00221A7082
:102080000F4B4FF000021A600C4B1B78062B3FF4ED
:102090000DAFE7E08C500008EC4F0008B6040020BC
:1020A000B704002000002440A804002000007E4364
:1020B000AC04002000007F43980400207604002038
:1020C00080040020022000210022FEF7F5FC694870
:1020D000FEF786FE00200121FEF754FE6648FEF75B
:1020E0007FFE0F2000F0A6FC644B1B78042B05D16B
:1020F000634B1B780133DAB2614B1A70604B1B786B
:10210000042B02D95E4B00221A705C4B1B78022B09
:1021100027D15A4B00221A70594B1B78184602F0EF
:1021200079F802460B464FF00000564900F052FE87
:1021300004460D46544B1B78184602F07BF80246C5
:102140000B461046194622462B4601F027FF024651
:102150000B461046194602F095FB0346DAB24A4B8D
:102160001A70464B1B78032B27D1444B00221A7060
:10217000434B1B78184602F04DF802460B464FF0D1
:102180000000404900F026FE04460D463E4B1B78F9
:10219000184602F04FF802460B46104619462246F2
:1021A0002B4601F0F9FE02460B461046194602F096
:1021B00069FB0346DAB2344B1A70314B1B78184670
:1021C00002F028F802460B464FF000002D4900F0BF
:1021D00001FE02460B461046194602F073FB034609
:1021E00000202A491A46FDF791FF02200121FEF73F
:1021F000C9FD26480521FEF71BFE234B1B78184618
:1022000002F066FC0346002020491A46FDF77EFFD7
:102210000A200121FEF7B6FD1C480521FEF708FE45
:10222000C820FEF74DF8154B1B78012B1AD1184B1F
:1022300000221A70012000210022FEF73DFC02203E
:1022400000210022FEF738FC1248FEF7C9FD1248B3
:102250000D491022FEF7F2F90120FEF75DF8084B58
:1022600000221A700A4B1B78072B3FF42BAFFEF7A6
:1022700076BF00BF9C500008EC4F0008B604002059
:10228000B70400200000244098040020AC04002083
:1022900076040020AC50000800FC000898B500AFA0
:1022A00096480021FEF752F994480121FEF78CF977
:1022B0000346012B40F0218190480121FEF7AEF941
:1022C0008F4B1B68002B7ED18E4B1B7883F0010354
:1022D000DBB2002B0BD08C4B1B6818464FF07E51A5
:1022E00002F046FB03461A46874B1A600AE0864B0B
:1022F0001B6818464FF07E5102F038FB03461A4621
:10230000814B1A60814B1A88814B1B889A4224D9D1
:10231000804B1B78002B20D07C4B1B8819467E4BB2
:102320001B881846794B1A887C4B1B88B2FBF3F349
:102330009BB20344994210DD744B1A88734B198881
:10234000764B1B88581C84B274480480B1FBF3F3AD
:102350009BB2D31A9AB26D4B1A806E4B1B7883F0E6
:102360000103DBB2002B00F0C080684B1B881946CC
:10237000664B1A88694B1B88B2FBF3F39BB2C3F51B
:102380007F43FF33994211DA604B1A88634B1B88F5
:10239000591E88B261490880B2FBF3F39AB25B4BD5
:1023A0001B8813449AB2594B1A809EE0534800216F
:1023B000FEF7CCF85A4B00221A70544B00221A80B8
:1023C00000F014FC99E0514B1A88514B1B889A423B
:1023D00024D9544B1B68002B20D04C4B1B8819462A
:1023E0004D4B1B881846494B1A884C4B1B88B2FB37
:1023F000F3F39BB20344994210DD444B1A88434BDC
:102400001988464B1B88581C84B244480480B1FB91
:10241000F3F39BB2D31A9AB23C4B1A803B4B1B8806
:102420004FF6FF72934223D03E4B1B68002B1FD107
:10243000364B1B881946354B1A88384B1B88B2FB24
:10244000F3F39BB2C3F57F43FF33994210DA2F4B6E
:102450001A88324B1B88591E88B230490880B2FB5B
:10246000F3F39AB2294B1B8813449AB2274B1A8074
:10247000244B1B7883F00103DBB2002B0BD0224BE3
:102480001B6818464FF07E5102F072FA03461A4656
:102490001D4B1A600AE01C4B1B6818464FF07E511A
:1024A00002F064FA03461A46174B1A601D4B1B686C
:1024B000002B04D01B4B1B68013B1A4A1360104BC6
:1024C0001B68013B0E4A13600D4B1B68002B0CD19F
:1024D0000A480021FEF73AF8114B00221A700B4B04
:1024E00000221A8000F082FB07E0044B074A1288A2
:1024F0009A8502480121FEF729F898BD000800409E
:10250000680400208C040020800400208E04002039
:10251000BE0400207404002088040020BC040020B5
:10252000750400207004002090B583B000AF594BB3
:102530005B68184602F0D0FA0246574B1A60564BB9
:102540001B681846554902F0CFFB03467B60524B8F
:102550001C68534B1B68184602F0BEFA034620461F
:10256000194602F0C1FB03463B6000200021FEF744
:1025700009FC4C48FEF734FC4B4B1B681846796845
:1025800002F0B2FB0346184600F01CF90346184659
:1025900002F0A2FA0346012044491A46FDF7B6FDAF
:1025A00042480521FDF740FE40480521FEF740FC6A
:1025B00009200021FEF7E6FB3D48FEF711FC3A4BEF
:1025C0001B681846396802F08FFB0346184600F076
:1025D000F9F80346184602F07FFA03460020334913
:1025E0001A46FDF793FD31480521FEF721FC2C4BDF
:1025F0001B68002B16D000200121FEF7C3FB2D48DD
:10260000FEF7EEFB264B1B68184602F065FA034600
:10261000002026491A46FDF779FD24480521FEF7DA
:1026200007FC19E000200121FEF7ACFB2248FEF771
:10263000D7FB224B1B68184602F04EFA03460120D6
:102640001A491A46FDF762FD18480521FDF7ECFD11
:1026500016480521FEF7ECFB09200121FEF792FB4D
:102660001748FEF7BDFB174B1B881A46164B93FB0A
:10267000F2F3184602F030FA034600200B491A46DE
:10268000FDF744FD09480521FEF7D2FB0C37BD4696
:1026900090BD00BF98040020B804002000006145F0
:1026A00078040020BC50000880040020AC04002006
:1026B000C4500008C8500008D05000087C04002016
:1026C000D85000088E04002040420F0090B583B01F
:1026D00000AF374B1B68184602F018FC0246354B1A
:1026E0001A60344B1B68002B00D15DE000237B6037
:1026F0004FF000033B602E4B1B68184602F006FCAF
:1027000003467B602A4B1C68786802F0E5F90346B3
:102710002046194602F02AF903463B60264B1B6807
:102720001846396802F024F903461A46224B1A600B
:10273000214B1B6818464FF07E5102F0DDFB03462B
:10274000002B0FD01B4B1B6801331A4A13601A4B26
:102750001B6818464FF07E5102F008F903461A46EE
:10276000154B1A60134B1B68184602F0B5F9024668
:10277000124B1B681046194602F0FAF803461C4635
:102780000F4B1B6818464FF07E5102F0EFF80346DE
:102790002046194602F088FB0346002B04D0054B67
:1027A0001B680133034A13600C37BD4690BD00BF60
:1027B000900400206804002084040020800400208D
:1027C000B804002080B584B000AF78600023FB60BF
:1027D0004FF00003BB60786802F098FB0346FB6093
:1027E000F86802F079F903467868194602F0BEF8F5
:1027F0000346BB60B8684FF07C5102F07DFB034696
:10280000002B07D0FB685A1CFA60184602F064F9E6
:102810000346BB60FB6818461037BD4680BD00BF4D
:1028200080B500AF174B5A7B174B1A70174B1B78AC
:10283000032B06D1144B1B7883F00103DAB2124B41
:102840001A70104B9A7B124B1A700E4B1A89114B4F
:102850001A800C4B1B789AB20F4B1A80094B5B689D
:10286000184602F039F902460C4B1A60054B5A899A
:102870000B4B1A800B4B00221A80024B1A7B0A4B1F
:102880001A7080BD980400208C040020B60400203B
:102890008A040020BC04002088040020B804002022
:1028A000BE0400208E0400208B04002080B483B07E
:1028B00000AF78600B46FB70FB78002B06D009490F
:1028C000084B9A697B6813438B6106E00549054B09
:1028D0009A697B68DB4313408B610C37BD465DF81A
:1028E000047B70470010024080B483B000AF786072
:1028F0000B46FB70FB78002B06D00949084BDA69C0
:102900007B681343CB6106E00549054BDA697B68B8
:10291000DB431340CB610C37BD465DF8047B704749
:102920000010024080B500AF00F00EF800F000F992
:1029300000F01CF900F020F802480821FEF79CFB8B
:1029400080BD00BF0008014080B582B000AF042008
:102950000121FFF7ABFF0323BB714823FB71F02379
:10296000BB803B1D03481946FEF79EFA0837BD465B
:1029700080BD00BF0008014080B582B000AF0420D8
:102980000121FFF793FF0323BB711023FB71082381
:10299000BB803B1D03481946FEF786FA0837BD4643
:1029A00080BD00BF0008014080B500AF1F4B002272
:1029B0001A701F481021FEF737FB0346002B07D182
:1029C00096204FF4967100F0E9F8184B04221A7023
:1029D00017488021FEF728FB0346002B07D19620DD
:1029E0004FF4967100F0DAF8104B01221A7010487B
:1029F0004021FEF719FB0346002B07D196204FF428
:102A0000967100F0CBF8094B02221A700848202179
:102A1000FEF70AFB0346002B07D196204FF4967170
:102A200000F0BCF8014B03221A7080BDB6040020F0
:102A30000008014080B584B000AF0346FB713A4BFB
:102A400000221A700023FB7312E096204FF4967157
:102A500000F0A4F8FB7B0133FB73FA7BFB799A420D
:102A600003D9314B0A221A705AE02F4B01221A70F7
:102A70002E488021FEF7D8FA0346002BE5D012E05D
:102A800096204FF4967100F089F8FB7B0133FB73BD
:102A9000FA7BFB799A4203D9234B14221A703FE048
:102AA000214B02221A7021484021FEF7BDFA03464D
:102AB000002BE5D012E096204FF4967100F06EF8EE
:102AC000FB7B0133FB73FA7BFB799A4203D9164BEC
:102AD0001E221A7024E0144B03221A70134820217E
:102AE000FEF7A2FA0346002BE5D012E096204FF441
:102AF000967100F053F8FB7B0133FB73FA7BFB7993
:102B00009A4203D9084B28221A7009E0064B042286
:102B10001A7006481021FEF787FA0346002BE5D00D
:102B20001037BD4680BD00BFB6040020000801403C
:102B300080B582B000AF10200121FFF7B7FE03235C
:102B4000BB711023FB714FF40053BB803B1D064843
:102B50001946FEF7A9F904484FF40051FEF77EFA32
:102B60000837BD4680BD00BF0010014080B582B06F
:102B700000AF10200121FFF799FE0323BB71102342
:102B8000FB714FF40053BB803B1D03481946FEF711
:102B90008BF90837BD4680BD0010014080B582B07A
:102BA00000AF7860396014E00F484FF40051FEF731
:102BB00055FA7B681846FDF799FB0B484FF4005116
:102BC000FEF75AFA7B681846FDF790FB3B68013B1D
:102BD0003B603B68002BE7D103484FF40051FEF700
:102BE0004BFA0837BD4680BD0010014080B500AFEC
:102BF00096204FF49671FFF7D1FF3220FDF760FB6E
:102C000082204FF49671FFF7C9FF3220FDF758FB81
:102C10006E204FF49671FFF7C1FF80BD80B400AF06
:102C2000044B054A5A60034B044A5A60BD465DF89E
:102C3000047B70470020024023016745AB89EFCD3C
:102C400080B400AF044A044B1B6943F08003136156
:102C5000BD465DF8047B70470020024080B584B01B
:102C600000AF78600423FB734FF4302000F090F83D
:102C70000346FB73FB7B042B1BD1104A0F4B1B69D4
:102C800043F0020313610D4A7B6853610B4A0B4BFF
:102C90001B6943F0400313614FF4302000F078F8D3
:102CA0000346FB730549054B1A6941F6FD73134052
:102CB0000B61FB7B18461037BD4680BD00200240EB
:102CC00080B584B000AF78600B467B800423FB7333
:102CD0004FF4005000F05CF80346FB73FB7B042BC1
:102CE00015D10D4A0C4B1B6943F0010313617B683E
:102CF0007A881A804FF4005000F04AF80346FB73BC
:102D00000549054B1A6941F6FE7313400B61FB7BC5
:102D100018461037BD4680BD0020024080B483B005
:102D200000AF7860034A7B68D3600C37BD465DF81E
:102D3000047B70470020024080B483B000AF0423BE
:102D4000FB71124BDB6803F00103002B02D001235F
:102D5000FB7113E00D4BDB6803F00403002B02D082
:102D60000223FB710AE0094BDB6803F01003002B20
:102D700002D00323FB7101E00423FB71FB791846A9
:102D80000C37BD465DF8047B704700BF0020024051
:102D900080B584B000AF78600423FB73FFF7CCFFED
:102DA0000346FB7306E0FFF7C7FF0346FB737B6830
:102DB000013B7B60FB7B012B02D17B68002BF2D1B6
:102DC0007B68002B01D10523FB73FB7B1846103772
:102DD000BD4680BD2DE9F04F8BB01F468046894629
:102DE000164600F071F9DFF8D8A204469AF90030CF
:102DF0000D46013304D03046394600F085FF20B936
:102E0000204629460BB0BDE8F08F4046494600F009
:102E10007BFF834660BB304639460022002301F029
:102E2000D7FC0028ECD09AF900309E4C01229E4934
:102E300000208DE814005A1CCDF820B0CDE902899D
:102E4000CDE90467CDE906010DD0022B0BD0684611
:102E500000F086FF002800F09380089B1BB102F071
:102E60009BF8089B0360DDE906010BB0BDE8F08F1D
:102E7000404649460022002301F0AAFCF8B1304642
:102E800039460022002301F0A3FC834600284ED0DF
:102E900084489AF900300121002200240025CDE960
:102EA0000289CDE90467CDE90645019000910892B9
:102EB000002BCCD07C4B0022CDE90623D3E7204663
:102EC000294600F01BFF834600285ED02046294695
:102ED0000022002301F07CFC002891D040464946A6
:102EE00000F00CFF00288BD03046394600F006FF7A
:102EF000002885D09AF900306A4804210022002475
:102F00000025022BCDE90289CDE90467CDE906450C
:102F100001900091089200F08880684600F020FF40
:102F2000002800F08280089B002B9CD097E7304659
:102F3000394600F0E3FE00283FF462AF30463946E0
:102F40000022002301F04EFC00283FF459AF554900
:102F50009AF800300122CDF820B0CDE90289CDE900
:102F6000046701910092002B3CD050490020022BB5
:102F7000CDE9060130D102F00FF821230360D2E73A
:102F800002F00AF82123036067E74046494600F053
:102F9000B5FE00289AD03046394600F0AFFE002832
:102FA00094D02046294600F0AFFE00BB3D4A9AF877
:102FB000004001230890CDE90289CDE90467019220
:102FC00000937CB10020002102460B4601F0C2FABA
:102FD000022CCDE90601CED0684600F0C1FE0028E3
:102FE000A1D1C8E700220023CDE90623F4E72D494B
:102FF0009AF900300322CDF820B0CDE90289CDE95D
:10300000046701910092ABB9294D4FF060444046EE
:10301000494600220023CDE9064501F0E3FB50BB01
:103020009AF90030022B7FF478AF01F0B5FF22232C
:10303000036078E71F4D00244046494600220023E4
:10304000CDE9064501F0CEFB0028E9D000221A4B5D
:103050003046394601F054F904460D4600F088FE2A
:1030600022462B4601F0B4FB0028D9D10F4B002299
:10307000CDE90623D4E700220F4B3046394601F054
:103080003FF904460D4600F073FE22462B4601F040
:103090009FFB0028C4D1094B4FF06042CDE90623C5
:1030A000BEE700BFDC5000080000F03F0000F0FF6A
:1030B000FFFFEF470000F07F0000E03FFFFFEFC79A
:1030C00034000020000000002DE9F04F144623F0EA
:1030D0000047024657EA04000E468FB01D469C4644
:1030E000214634D06E4B26F0004A9A459346B146AD
:1030F00026DC24D09F4223DC694B9F4200F08F8066
:10310000B9F1000FC0F28F804FF0000879BB644B1B
:103110009F4200F0A580634B9F4267D0BCF1804F77
:1031200000F0E283604B9C4521D1B9F1000F1EDB1A
:10313000104631460FB0BDE8F04F00F015BD62B14A
:103140000AF1404000F5801050EA0B0007D1034619
:10315000544918460FB0BDE8F08F5745CCDD5348B1
:103160000FB0BDE8F04F00F0FDBD4FF00008104675
:103170003146CDF808C0009200F0BCFD009ADDF8A1
:1031800008C0BBF1000F20D04FEAD97909F1FF390F
:1031900058EA09037AD0464B9F4240F38F8003F1EF
:1031A00004739F4240F31084424B9A4540F392834C
:1031B000BCF1000F40F3928337A1D1E900010B4627
:1031C000024601F09DF80346C3E7BAF1000F04D0B0
:1031D000344B29F0404E9E45D6D1BCF1000FC0F2D1
:1031E000B683B9F1000F08DB0346B2E7BCF1000F6C
:1031F000C0F2528413463146ABE70AF1404A0AF561
:10320000801A58EA0A0340F05E8402460B4600F03A
:10321000C3FE0B46024601F09DF9034699E70029DB
:103220003FF46EAF8CE7244B9F422CDCA3F1547328
:103230009F427FF769AF40F213403B15834240F352
:103240004B84C3F58663033321FA03F000FA03F3DA
:103250008B427FF459AF00F00100C0F1020855E73E
:103260000AF1404303F5801353EA0B0300F039835E
:10327000104B9A4540F36483BCF1000FC0F22E83DB
:103280002346294665E74FF002083FE710463146DE
:103290003346BCE7AFF300809C7500883CE4377E82
:1032A0000000F07F0000F03F0000E03F10510008F8
:1032B0000000E041FFFFEF3FFFFF3F43BAF5801FF3
:1032C0004FF0000205DACA4B01F01AF88A466FF097
:1032D00034024FEA2A53C74ECAF3130AA3F2FF334C
:1032E0004AF07F571344B2450C9347F4401740F31C
:1032F000D083C14B9A4540F307840026B4460C9B0B
:10330000A7F5801701330C933946BC4B4FEACC0C20
:103310006344D3E900AB52465B46CDF834C0CDE9F7
:10332000060100F039FE52465B46CDE90801DDE9B1
:10333000060100F033FE02460B460020B04901F0C2
:1033400009F902460B46DDE90801CDE90A2300F040
:10335000D7FF02460B46CDE90223CDE904237B10BB
:1033600043F0005303F5002399190020002306467B
:103370000F460293DDE902231046194632463B46CA
:10338000CDE9000100F0BCFF02460B46DDE9080173
:1033900000F002FE5246CDE908015B463046394650
:1033A00000F0FAFD02460B46DDE9060100F0F4FDEF
:1033B00002460B46DDE9000100F0A2FF02460B4683
:1033C000DDE9080100F0E8FDDDE90A2300F098FFDF
:1033D000DDE90423CDE906011046194600F090FF0F
:1033E00002460B4606460F4600F08AFF6EA3D3E95D
:1033F000002382468B463046394600F081FF6CA39D
:10340000D3E9002300F0CAFD32463B4600F078FFC6
:1034100069A3D3E9002300F0C1FD32463B4600F02A
:103420006FFF67A3D3E9002300F0B8FD32463B46A7
:1034300000F066FF64A3D3E9002300F0AFFD32463D
:103440003B4600F05DFF62A3D3E9002300F0A6FD38
:1034500002460B465046594600F052FFDDE9042370
:1034600006460F46DDE9000100F098FDDDE9062380
:1034700000F046FF32463B4600F090FDDDE9006774
:1034800082468B4632463B463046394600F038FF8E
:1034900000225C4BCDE9080100F080FD52465B46FE
:1034A00000F07CFD02980F460646DDE90001324639
:1034B0003B4600F025FF32463B46CDE90001DDE901
:1034C000060100F01DFF0022CDE906014D4B3046FC
:1034D000394600F061FDDDE9082300F05DFD02469C
:1034E0000B465046594600F057FDDDE9042300F035
:1034F00007FF02460B46DDE9060100F04FFD82465C
:103500008B46DDE9000152465B4600F047FD32A3E1
:10351000D3E9002302980F46064600F0F1FE30A3DF
:10352000D3E90023CDE904013046394600F0E8FE36
:10353000DDE90023CDE906013046394600F02CFDD7
:1035400002460B465046594600F026FD26A3D3E915
:10355000002300F0D5FE02460B46DDE9060100F02F
:103560001DFDDDF834C0284BCDF818C06344D3E905
:10357000002300F013FDCDE900010C9800F05AFE85
:1035800006460F46DDE90401204BDDF818C09C44D7
:10359000DDE90023DCE900AB00F000FD52465B46AC
:1035A00036E000BFAFF30080EF4E454A287ECA3FA9
:1035B00065DBC9934A86CD3F01411DA96074D13FA7
:1035C0004D268F515555D53FFFAB6FDBB66DDB3FB9
:1035D000033333333333E33F000000E009C7EE3FEA
:1035E000F5015B14E02F3EBEFD033ADC09C7EE3F58
:1035F000000040438E98030079B60B00005100088C
:103600000000F03F00000840F0500008E0500008C3
:10361000CDE906AB00F0C2FC32463B4600F0BEFCF2
:10362000029832463B4682468B4600F0B5FCDDE907
:10363000062300F0B1FCDDE9042300F0ADFC0246F6
:103640000B46DDE9000100F0A7FCCDE9020108F11D
:10365000FF3858EA09030CBFD54BD64B0022CDE901
:1036600004230023CDE900450093DDE900672046EF
:1036700032463B46294600F08FFC52465B4600F03E
:103680003FFEDDE90223804689462046294600F0B8
:1036900037FE02460B464046494600F07FFC044692
:1036A0000D465246304639465B46CDE9024500F0AC
:1036B00027FE06460F4620463B462946324600F086
:1036C0006DFCBD4B824699428946884640F3138182
:1036D00001F13F4303F5E003034340F0E581A0A37C
:1036E000D3E90023DDE9020100F058FC324604462C
:1036F0000D463B465046494600F04EFC02460B46FE
:103700002046294601F08CF8002840F0CD814C4637
:103710002015A0F2FE304FF4801101414144C1F365
:103720000A50A64CA0F2FF35C1F3130BC0F582601E
:1037300003302C414BF4801B21EA040300224BFA96
:1037400000FB3946304600F027FC06460F46DDE90F
:1037500002018BEAE87B0BEBD87B32463B464FEA13
:103760000B5A00F01BFC80A3D3E900230024204661
:103770000D4600F0C5FD3246804689463B46204650
:10378000294600F009FC02460B46DDE9020100F083
:1037900003FC77A3D3E9002300F0B2FD76A3D3E9BD
:1037A000002306460F462046294600F0A9FD0246A2
:1037B0000B463046394600F0F1FB06460F463246CE
:1037C0003B464046494600F0E9FB42464B4604462C
:1037D0000D4600F0E1FB02460B463046394600F04C
:1037E000DBFB2246804689462B462046294600F0D0
:1037F00087FD63A3D3E9002306460F4600F080FD52
:1038000061A3D3E9002300F0C7FB32463B4600F03A
:1038100077FD5FA3D3E9002300F0C0FB32463B46AF
:1038200000F06EFD5CA3D3E9002300F0B5FB324647
:103830003B4600F065FD5AA3D3E9002300F0AEFB40
:1038400032463B4600F05CFD02460B4620462946C8
:1038500000F0A2FB06460F4632463B46204629466C
:1038600000F04EFD0022CDE900014FF080433046CC
:10387000394600F091FB02460B46DDE9000100F0FD
:1038800069FE424606460F464B462046294600F052
:1038900037FD42464B4600F081FB02460B46304660
:1038A000394600F079FB22462B4600F075FB0246B4
:1038B0000B4600203F4900F06FFB8A44BAF5801F99
:1038C0000246C0F227815346DDE9040100F018FDED
:1038D00003463EE4BCF1000FFFF66EAC0023194630
:1038E00037E40B46334934E433461046314600F0A2
:1038F00007FD03462DE4324B21F000449C4240F387
:10390000FA80304B0B4403430CD132463B4600F067
:1039100043FB02460B46DDE9020100F06DFF002883
:103920003FF4F6AE20A3D3E90023DDE9040100F063
:10393000E7FC1DA3D3E9002300F0E2FC034608E402
:10394000BCF1000FCADA234605F1004101E402464A
:103950000B460020174900F0FDFD42E4AFF3008064
:10396000FE822B654715973C00000000432EE63F82
:10397000EF39FAFE422EE63F396CA80C615C20BE9E
:10398000D0A4BE726937663EF16BD2C541BDBB3E65
:103990002CDE25AF6A56113F93BDBE166CC1663F43
:1039A0003E5555555555C53F59F3F8C21F6EA501F3
:1039B0000000F0BF0000F03FFFFF8F40FFFF0F004F
:1039C000FFCB904000346F3F634B9A4582DD634BE1
:1039D0009A453FF7EDAB0022604B00F0DDFA54A3AF
:1039E000D3E9002306460F4600F08AFC52A3D3E930
:1039F0000023CDE900013046394600F081FC324613
:103A0000CDE902013B463046394600F079FC002200
:103A100082468B4630463946514B00F071FC0246D7
:103A20000B4647A1D1E9000100F0B6FA32463B4609
:103A300000F066FC02460B4600204A4900F0ACFA52
:103A400002460B465046594600F05AFC3EA3D3E9C5
:103A5000002300F055FC02460B46DDE9020100F0B0
:103A60009BFA06460F46DDE9000132463B4600F070
:103A700095FADDE90023002082468B4600F08CFA9F
:103A800002460B463046394600F086FACDE902017F
:103A9000DDE50026B44637E4334600202F4900F028
:103AA00059FD0346FFF755BB29A3D3E90023DDE900
:103AB000040100F025FC26A3D3E9002300F020FC3C
:103AC0000346FFF746BBB8F1010F03467FF441AB55
:103AD00001F10041FFF73DBB00297FF446ABC3F580
:103AE0008263033347FA03F000FA03F3BB4217D0B3
:103AF0008846FFF710BB1B4B9C423FF709AEDDE940
:103B00000023924693462EE64FF480264FF0010C98
:103B1000FFF7FABB5A4600F0BBF902460B46D3E664
:103B200000F00100C0F10208FFF7F5BAAFF3008022
:103B3000000000604715F73F44DF5DF80BAE543ED0
:103B4000555555555555D53FFE822B654715F73FC1
:103B50009C7500883CE4377EFEFFEF3F0000F03F9D
:103B60000000D03F0000E03F2DE9F041604E0C46E0
:103B7000B6460E40764505460B4600F09880002973
:103B8000024676DD5FEA215E00F08180AEF2FF3E04
:103B9000C3F313031EF0010F43F480135ED100271B
:103BA0003C46D10F01EB43034FEA6E0E5200162044
:103BB0004FF4001165189D424FEAD2764FEA420257
:103BC00002DC5B1B6C180F44013806EB43034FEA21
:103BD0005101EFD1844620264FF000410AE0A34274
:103BE00020D0D50F013E4FEA510105EB43034FEAC8
:103BF000420220D09C420CEB0105F0DA002D05EBCF
:103C0000010C09DBA0461B1B954288BF03F1FF3363
:103C10004446521B0844E4E7BCF1000FF2DB04F118
:103C20000108F0E7954217D8002D05EB010C48DBA1
:103C300098460023ECE7134315D140087B1003F1AD
:103C40007F5303F50013FA0703EB0E57394648BFBD
:103C500040F00040BDE8F0811C46C2E7D10F01EB07
:103C6000430352009BE7411C31D000F0010318448C
:103C7000E3E721F000460643ECD079BB8E46D30A39
:103C8000AEF1150E5205002BF9D0DC0222D4002132
:103C90005B00D80201F10101FAD5C1F10100C1F1C7
:103CA000200422FA04F4234386448A406EE7024645
:103CB0000B4600F025FB2A46234600F06FF9BDE8CD
:103CC000F081BCF1000FAADAA0460023A0E701377B
:103CD0003046B3E7202401200021E2E702460B46EC
:103CE00000F05AF902460B4600F034FCB2E700BF80
:103CF0000000F07F21F00041704700BF41F000411B
:103D000001F58010C00F704710B431F0004408D0A6
:103D1000114BA1F580129A4208D804205DF8044B9B
:103D2000704718B902205DF8044B704701F1FF415C
:103D3000094B01F5E0019942EFD9B4F5801F01D29A
:103D40000320EBE7054B9C4201D00020E6E7B0FAE8
:103D500080F04009E2E700BFFFFFDF7F0000F07F57
:103D60000020704700200149704700BF0000F87F25
:103D7000F0B5C1F30A5EAEF2FF35132D83B00246F3
:103D80000B460C464FEAD17607462EDC002D48DB69
:103D90003C49294101EA030010432BD049080B405C
:103DA00053EA02070CD04FF48023132D24EA0101BB
:103DB00043FA05F444EA01040CBF4FF00047002722
:103DC0003149234601EBC606D6E900453A4620466E
:103DD000294600F0E3F8CDE90001DDE900012246C3
:103DE0002B4600F0D9F803B0F0BD332D06DDB5F554
:103DF000806F43D01046194603B0F0BDAEF2134EAB
:103E00004FF0FF3121FA0EF10142F3D0490801428F
:103E1000D6D04FF0804320EA010143FA0EF70F435A
:103E2000CEE721F000410143E4D0C3F3130141EA9E
:103E3000000CCCF1000141EA0C0C13495C0C4FEA78
:103E40001C3C0CF4002C640401EBC6014CEA040396
:103E5000D1E900452046294600F0A0F8CDE900014F
:103E6000DDE9000122462B4600F096F8024621F0DB
:103E7000004141EAC67310461946BDE700F08EF8CE
:103E8000BAE700BFFFFF0F00185100080000000054
:103E9000F8B5C1F30A5604460D460B46174616BB45
:103EA00021F00043034332D00022314B00F028FAC6
:103EB000304A044697420D460B4637DB40F2FE720D
:103EC000C1F30A56363E3E44964215DD24A1D1E99F
:103ED000000122462B4600F053F821A3D3E900232A
:103EE00000F00EFAF8BD40F2FF72964224D040F284
:103EF000FE723E449642E9DC002E09DD23F0FF43CA
:103F000023F4E00343EA065520462946F8BDF8BDF0
:103F100016F1350F15DA4CF250339F42D6DC12A160
:103F2000D1E9000122462B4600F02AF80EA3D3E97E
:103F3000002300F0E5F9F8BD02460B4600F02EF82C
:103F4000F8BD23F0FF4323F4E003363643EA065579
:103F5000204629460022084B00F0D2F9F8BD00BFE8
:103F60009C7500883CE4377E59F3F8C21F6EA501AA
:103F700000005043B03CFFFF0000903CAFF30080D6
:103F800003F0004321F0004243EA0201704700BF02
:103F900081F0004102E000BF83F0004330B54FEAFA
:103FA00041044FEA430594EA050F08BF90EA020F67
:103FB0001FBF54EA000C55EA020C7FEA645C7FEAFA
:103FC000655C00F0E2804FEA5454D4EB5555B8BF1D
:103FD0006D420CDD2C4480EA020281EA030382EA8E
:103FE000000083EA010180EA020281EA0303362D20
:103FF00088BF30BD11F0004F4FEA01314FF4801CF3
:104000004CEA113102D0404261EB410113F0004F04
:104010004FEA03334CEA133302D0524263EB4303BB
:1040200094EA050F00F0A780A4F10104D5F1200E59
:104030000DDB02FA0EFC22FA05F2801841F10001B4
:1040400003FA0EF2801843FA05F359410EE0A5F188
:1040500020050EF1200E012A03FA0EFC28BF4CF0B9
:10406000020C43FA05F3C01851EBE37101F000456F
:1040700007D54FF0000EDCF1000C7EEB00006EEB7C
:104080000101B1F5801F1BD3B1F5001F0CD3490806
:104090005FEA30004FEA3C0C04F101044FEA44525D
:1040A00012F5800F80F09A80BCF1004F08BF5FEAE4
:1040B000500C50F1000041EB045141EA050130BDC4
:1040C0005FEA4C0C404141EB010111F4801FA4F167
:1040D0000104E9D191F0000F04BF01460020B1FABC
:1040E00081F308BF2033A3F10B03B3F120020CDAF4
:1040F0000C3208DD02F1140CC2F10C0201FA0CF0D2
:1041000021FA02F10CE002F11402D8BFC2F1200C36
:1041100001FA02F120FA0CFCDCBF41EA0C019040EC
:10412000E41AA2BF01EB0451294330BD6FEA040435
:104130001F3C1CDA0C340EDC04F11404C4F1200220
:1041400020FA04F001FA02F340EA030021FA04F332
:1041500045EA030130BDC4F10C04C4F1200220FA89
:1041600002F001FA04F340EA0300294630BD21FAC7
:1041700004F0294630BD94F0000F83F4801306BF8D
:1041800081F480110134013D4EE77FEA645C18BF81
:104190007FEA655C29D094EA050F08BF90EA020F18
:1041A00005D054EA000C04BF1946104630BD91EA10
:1041B000030F1EBF0021002030BD5FEA545C05D113
:1041C0004000494128BF41F0004130BD14F5800452
:1041D0003CBF01F5801130BD01F0004545F0FE41C6
:1041E00041F470014FF0000030BD7FEA645C1ABFFB
:1041F000194610467FEA655C1CBF0B46024650EA32
:10420000013406BF52EA033591EA030F41F400215D
:1042100030BD00BF90F0000F04BF0021704730B5E3
:104220004FF4806404F132044FF000054FF00001B8
:1042300050E700BF90F0000F04BF0021704730B579
:104240004FF4806404F1320410F0004548BF40424E
:104250004FF000013EE700BF42004FEAE2014FEAA3
:1042600031014FEA02701FBF12F07F4393F07F4F7E
:1042700081F06051704792F0000F14BF93F07F4FB0
:10428000704730B54FF4607401F0004521F00041F3
:1042900020E700BF50EA010208BF704730B54FF079
:1042A00000050AE050EA010208BF704730B511F07E
:1042B000004502D5404261EB41014FF4806404F1B6
:1042C00032045FEA915C3FF4DCAE4FF003025FEA38
:1042D000DC0C18BF03325FEADC0C18BF033202EBC0
:1042E000DC02C2F1200300FA03FC20FA02F001FA1A
:1042F00003FE40EA0E0021FA02F11444C1E600BFB9
:1043000070B54FF0FF0C4CF4E06C1CEA11541DBF6B
:104310001CEA135594EA0C0F95EA0C0F00F0DEF836
:104320002C4481EA030621EA4C5123EA4C5350EA1B
:10433000013518BF52EA033541F4801143F480136C
:1043400038D0A0FB02CE4FF00005E1FB02E506F0FD
:104350000042E0FB03E54FF00006E1FB03569CF052
:10436000000F18BF4EF0010EA4F1FF04B6F5007F58
:1043700064F5407404D25FEA4E0E6D4146EB0606CA
:1043800042EAC62141EA55514FEAC52040EA5E5053
:104390004FEACE2EB4F1FD0C88BFBCF5E06F1ED8FD
:1043A000BEF1004F08BF5FEA500E50F1000041EB34
:1043B000045170BD06F0004646EA010140EA0200E1
:1043C00081EA0301B4EB5C04C2BFD4EB0C0541EA03
:1043D000045170BD41F480114FF0000E013C00F318
:1043E000AB8014F1360FDEBF002001F0004170BD3C
:1043F000C4F10004203C35DA0C341BDC04F1140455
:10440000C4F1200500FA05F320FA04F001FA05F2E0
:1044100040EA020001F0004221F0004110EBD370AD
:1044200021FA04F642EB06015EEA430E08BF20EAD9
:10443000D37070BDC4F10C04C4F1200500FA04F37C
:1044400020FA05F001FA04F240EA020001F000410E
:1044500010EBD37041F100015EEA430E08BF20EA81
:10446000D37070BDC4F1200500FA05F24EEA020EC9
:1044700020FA04F301FA05F243EA020321FA04F0F8
:1044800001F0004121FA04F220EA020000EBD370AF
:104490005EEA430E08BF20EAD37070BD94F0000FAF
:1044A0000FD101F00046400041EB010111F4801FE3
:1044B00008BF013CF7D041EA060195F0000F18BF94
:1044C000704703F00046520043EB030313F4801FD0
:1044D00008BF013DF7D043EA0603704794EA0C0F8A
:1044E0000CEA135518BF95EA0C0F0CD050EA4106A0
:1044F00018BF52EA4306D1D181EA030101F000411D
:104500004FF0000070BD50EA410606BF1046194644
:1045100052EA430619D094EA0C0F02D150EA013650
:1045200013D195EA0C0F05D152EA03361CBF104691
:1045300019460AD181EA030101F0004141F0FE4130
:1045400041F470014FF0000070BD41F0FE4141F4B4
:10455000780170BD70B54FF0FF0C4CF4E06C1CEAB4
:1045600011541DBF1CEA135594EA0C0F95EA0C0F69
:1045700000F0A7F8A4EB050481EA030E52EA033524
:104580004FEA013100F088804FEA03334FF0805545
:1045900045EA131343EA12634FEA022245EA111572
:1045A00045EA10654FEA00260EF000419D4208BF23
:1045B000964244F1FD0404F5407402D25B084FEAD0
:1045C0003202B61A65EB03055B084FEA32024FF47C
:1045D00080104FF4002CB6EB020E75EB030E22BFD9
:1045E000B61A754640EA0C005B084FEA3202B6EB99
:1045F000020E75EB030E22BFB61A754640EA5C0048
:104600005B084FEA3202B6EB020E75EB030E22BFD7
:10461000B61A754640EA9C005B084FEA3202B6EBD8
:10462000020E75EB030E22BFB61A754640EADC0097
:1046300055EA060E18D04FEA051545EA16754FEAF9
:1046400006164FEAC30343EA52734FEAC2025FEA17
:104650001C1CC0D111F4801F0BD141EA00014FF0A6
:1046600000004FF0004CB6E711F4801F04BF014377
:104670000020B4F1FD0C88BFBCF5E06F3FF6AFAE93
:10468000B5EB030C04BFB6EB020C5FEA500C50F123
:10469000000041EB045170BD0EF0004E4EEA1131A6
:1046A00014EB5C04C2BFD4EB0C0541EA045170BDAD
:1046B00041F480114FF0000E013C90E645EA060EF1
:1046C0008DE60CEA135594EA0C0F08BF95EA0C0F1F
:1046D0003FF43BAF94EA0C0F0AD150EA01347FF467
:1046E00034AF95EA0C0F7FF425AF104619462CE73E
:1046F00095EA0C0F06D152EA03353FF4FDAE1046A1
:10470000194622E750EA410618BF52EA43067FF4F1
:10471000C5AE50EA41047FF40DAF52EA43057FF481
:10472000EBAE12E74FF0FF3C06E000BF4FF0010C8C
:1047300002E000BF4FF0010C4DF804CD4FEA410CF0
:104740007FEA6C5C4FEA430C18BF7FEA6C5C1BD0BD
:1047500001B050EA410C0CBF52EA430C91EA030F3E
:1047600002BF90EA020F0020704710F1000F91EA9B
:10477000030F58BF994208BF90422CBFD8176FEA69
:10478000E37040F0010070474FEA410C7FEA6C5C37
:1047900002D150EA013C07D14FEA430C7FEA6C5C3E
:1047A000D6D152EA033CD3D05DF8040B704700BF6A
:1047B0008446104662468C461946634600E000BFB8
:1047C00001B5FFF7B7FF002848BF10F1000F01BD8A
:1047D0004DF808EDFFF7F4FF0CBF012000205DF855
:1047E00008FB00BF4DF808EDFFF7EAFF34BF0120DA
:1047F00000205DF808FB00BF4DF808EDFFF7E0FF73
:1048000094BF012000205DF808FB00BF4DF808EDC3
:10481000FFF7CEFF94BF012000205DF808FB00BF2A
:104820004DF808EDFFF7C4FF34BF012000205DF80C
:1048300008FB00BF4FEA410212F5001215D211D554
:104840006FF47873B3EB625212D94FEAC12343F08D
:10485000004343EA505311F0004F23FA02F018BF0F
:10486000404270474FF00000704750EA013005D1D8
:1048700011F0004008BF6FF0004070474FF000009B
:10488000704700BF4A0011D212F5001211D20DD5A7
:104890006FF47873B3EB62520ED44FEAC12343F046
:1048A000004343EA505323FA02F070474FF00000F0
:1048B000704750EA013002D14FF0FF3070474FF09F
:1048C000000070474FEA4102B2F1E04324BFB3F564
:1048D000001CDCF1FE5C0DD901F0004C4FEAC00277
:1048E0004CEA5070B2F1004F40EB830008BF20F05B
:1048F0000100704711F0804F21D113F13872BCBF15
:1049000001F00040704741F480114FEA5252C2F169
:104910001802C2F1200C10FA0CF320FA02F018BFB2
:1049200040F001004FEAC1234FEAD32303FA0CFC05
:1049300040EA0C0023FA02F34FEA4303CCE77FEA94
:10494000625307D150EA01331EBF4FF0FE4040F4DE
:104950004000704701F0004040F0FE4040F400008D
:10496000704700BF80F0004002E000BF81F00041CE
:1049700042001FBF5FEA410392EA030F7FEA226C05
:104980007FEA236C6AD04FEA1262D2EB1363C1BF95
:10499000D218414048404140B8BF5B42192B88BF04
:1049A000704710F0004F40F4000020F07F4018BF27
:1049B000404211F0004F41F4000121F07F4118BF47
:1049C000494292EA030F3FD0A2F1010241FA03FCEF
:1049D00010EB0C00C3F1200301FA03F100F00043D7
:1049E00002D5494260EB4000B0F5000F13D3B0F19F
:1049F000807F06D340084FEA310102F10102FE2A0E
:104A000051D2B1F1004F40EBC25008BF20F001007D
:104A100040EA03007047490040EB000010F4000F2B
:104A2000A2F10102EDD1B0FA80FCACF1080CB2EBBE
:104A30000C0200FA0CF0AABF00EBC250524218431D
:104A4000BCBFD0401843704792F0000F81F40001C2
:104A500006BF80F400000132013BB5E74FEA410395
:104A60007FEA226C18BF7FEA236C21D092EA030F01
:104A700004D092F0000F08BF0846704790EA010F7B
:104A80001CBF0020704712F07F4F04D1400028BFA8
:104A900040F00040704712F100723CBF00F500008A
:104AA000704700F0004343F0FE4040F400007047C0
:104AB0007FEA226216BF08467FEA2363014642026C
:104AC00006BF5FEA412390EA010F40F4800070477F
:104AD0004FF0000304E000BF10F0004348BF404225
:104AE0005FEA000C08BF704743F0964301464FF061
:104AF00000001CE050EA010208BF70474FF00003BD
:104B00000AE000BF50EA010208BF704711F00043FD
:104B100002D5404261EB41015FEA010C02BF8446CD
:104B20000146002043F0B64308BFA3F18053A3F52C
:104B30000003BCFA8CF2083AA3EBC25310DB01FA73
:104B400002FC634400FA02FCC2F12002BCF1004FF7
:104B500020FA02F243EB020008BF20F00100704788
:104B600002F1200201FA02FCC2F1200250EA4C00DC
:104B700021FA02F243EB020008BF20EADC70704722
:104B80004FF0FF0C1CEAD0521EBF1CEAD15392EA30
:104B90000C0F93EA0C0F6FD01A4480EA010C40020C
:104BA00018BF5FEA41211ED04FF0006343EA501066
:104BB00043EA5111A0FB01310CF00040B1F5000FA8
:104BC0003EBF490041EAD3715B0040EA010062F157
:104BD0007F02FD2A1DD8B3F1004F40EBC25008BF41
:104BE00020F00100704790F0000F0CF0004C08BF5F
:104BF00049024CEA502040EA51207F3AC2BFD2F12C
:104C0000FF0340EAC250704740F400004FF0000339
:104C1000013A5DDC12F1190FDCBF00F00040704773
:104C2000C2F10002410021FA02F1C2F1200200FAB1
:104C300002FC5FEA310040F1000053EA4C0308BF78
:104C400020EADC70704792F0000F00F0004C02BFC9
:104C5000400010F4000F013AF9D040EA0C0093F044
:104C6000000F01F0004C02BF490011F4000F013B9E
:104C7000F9D041EA0C018FE70CEAD15392EA0C0F0C
:104C800018BF93EA0C0F0AD030F0004C18BF31F077
:104C9000004CD8D180EA010000F00040704790F04D
:104CA000000F17BF90F0004F084691F0000F91F0F1
:104CB000004F14D092EA0C0F01D142020FD193EAB7
:104CC0000C0F03D14B0218BF084608D180EA01003F
:104CD00000F0004040F0FE4040F40000704740F01B
:104CE000FE4040F4400070474FF0FF0C1CEAD052E9
:104CF0001EBF1CEAD15392EA0C0F93EA0C0F69D045
:104D0000A2EB030280EA010C49024FEA402037D0AF
:104D10004FF0805343EA111143EA10130CF00040A6
:104D20008B4238BF5B0042F17D024FF4000C8B4296
:104D300024BF5B1A40EA0C00B3EB510F24BFA3EB76
:104D4000510340EA5C00B3EB910F24BFA3EB910346
:104D500040EA9C00B3EBD10F24BFA3EBD10340EAA0
:104D6000DC001B0118BF5FEA1C1CE0D1FD2A3FF6E6
:104D700050AF8B4240EBC25008BF20F0010070479B
:104D80000CF0004C4CEA50207F32C2BFD2F1FF033E
:104D900040EAC250704740F400004FF00003013A6F
:104DA00037E792F0000F00F0004C02BF400010F413
:104DB000000F013AF9D040EA0C0093F0000F01F027
:104DC000004C02BF490011F4000F013BF9D041EA49
:104DD0000C0195E70CEAD15392EA0C0F08D142027C
:104DE0007FF47DAF93EA0C0F7FF470AF084676E74F
:104DF00093EA0C0F04D14B023FF44CAF08466EE728
:104E000030F0004C18BF31F0004CCAD130F00042F5
:104E10007FF45CAF31F000437FF43CAF5FE700BF4D
:104E20004FF0FF3C06E000BF4FF0010C02E000BF76
:104E30004FF0010C4DF804CD4FEA40024FEA410318
:104E40007FEA226C18BF7FEA236C11D001B052EACE
:104E5000530C18BF90EA010F58BFB2EB030088BF94
:104E6000C81738BF6FEAE17018BF40F00100704703
:104E70007FEA226C02D15FEA402C05D17FEA236CE5
:104E8000E4D15FEA412CE1D05DF8040B704700BF2C
:104E9000844608466146FFE70FB5FFF7C9FF0028C3
:104EA00048BF10F1000F0FBD4DF808EDFFF7F4FFFC
:104EB0000CBF012000205DF808FB00BF4DF808ED95
:104EC000FFF7EAFF34BF012000205DF808FB00BFB8
:104ED0004DF808EDFFF7E0FF94BF012000205DF8DA
:104EE00008FB00BF4DF808EDFFF7D2FF94BF01208B
:104EF00000205DF808FB00BF4DF808EDFFF7C8FF84
:104F000034BF012000205DF808FB00BF4FEA4002DB
:104F1000B2F1FE4F0FD34FF09E03B3EB12620DD9E7
:104F20004FEA002343F0004310F0004F23FA02F051
:104F300018BF404270474FF00000704712F1610FF8
:104F400001D1420205D110F0004008BF6FF00040CF
:104F500070474FF00000704742000ED2B2F1FE4F92
:104F60000BD34FF09E03B3EB126209D44FEA002338
:104F700043F0004323FA02F070474FF000007047FF
:104F800012F1610F01D1420202D14FF0FF307047A0
:104F90004FF00000704700BF014B1868704700BF1A
:104FA0006004002053544550204D4F544F52000090
:104FB000CACECDD2D0CECBCBC5D00000C0D5D2D3B7
:104FC000CDC30000D1CFC5D6C8C0CBDCCDCE20C468
:104FD000CBDF0000CCC3C5D0C0000000D3D1D2C00D
:104FE000CDCEC2CAC0203C444C4E3E00522A0000E6
:104FF000D3D1D2C0CDCEC2CAC0203C4752443E001D
:10500000CFD0CEC4CECBC6C8D2DC20CDC0D1D2D07A
:10501000CEC9CAC83F000000C4C00000CDC5D20040
:10502000D8C0C3CEC22FCDC020CEC1CED0CED200EC
:10503000CDC0CFD0C0C2CBC5CDC8C5203C443E20DA
:105040000000000044203D2000000000454E414289
:105050004C4544203C453E200000000045203D20BA
:1050600000000000454E41424C4544203C533E2048
:105070000000000053203D2000000000D1CACED027
:10508000CED1D2DC203C566D61783E00D3D1CACE61
:10509000D0C5CDC8C5203C41783E0000C4CBC8D2A5
:1050A0002EC8CCCF203C535445503E00202020D168
:1050B000CED5D0C0CDDFC5CC00000000C3D03D2090
:1050C00000000000C4CB3D00444C4E3D00000000F9
:1050D0004752443D0000000056703D00706F77005D
:1050E00000000000000000000000004003B8E23FA4
:1050F000000000000000000006D0CF43EBFD4C3E56
:10510000000000000000F03F000000000000F83F39
:10511000000000000000000000000000000030431C
:0C51200000000000000030C3430000004D
:10512C0041CA42CBCC45CDCECFD04BD14D484F16FA
:10513C00504354D21858D3D4D5D6D7D8D9DADBDCCF
:10514C0008140803040403200102040F02040810CD
:10515C0004000000010000000000000024030020F7
:10516C008C030020F403002000000000000000006D
:10517C000000000000000000000000000000000023
:10518C000000000000000000000000002851000892
:10519C000000000000000000000000000000000003
:1051AC0000000000000000000000000000000000F3
:1051BC0000000000000000000000000000000000E3
:1051CC0000000000000000000000000000000000D3
:1051DC0000000000000000000000000000000000C3
:1051EC0000000000000000000000000000000000B3
:1051FC0000000000000000000000000000000000A3
:10520C0001000000000000000E33CDAB34126DE63F
:10521C00ECDE05000B0000000000000000000000A8
:10522C000000000000000000000000000000000072
:10523C000000000000000000000000000000000062
:10524C000000000000000000000000000000000052
:10525C000000000000000000000000000000000042
:04558C0038000020C3
:0400000508000000EF
:00000001FF
